:0400000036EF31F0B6
:10604200050014001400FB7F056E010E036E05505F
:10605200C009B4EC30F0020E036E0550C009B4EC76
:1060620030F01200056E010E036E0550B809B4EC53
:1060720030F0020E036E0550B809B4EC30F0120095
:10608200818A010E036E3F0EB4EC30F0020E036EF5
:106092003F0EB4EC30F0000E25EC30F01200036E2F
:1060A200000E026E3A0E036005D02F0E036402D07A
:1060B200010E026E02C001F0013012000F6E0DC01F
:1060C20006F0010E076E0F50BEEC31F00DC006F067
:1060D200010E076E0F50BEEC31F00E6E0E50120024
:1060E20001500302F3CF05F0F4CF06F00150040291
:1060F200F350062602500302F350062605C001F0B3
:1061020006C002F01200026E9568000E936E020441
:10611200D8B48190020E0218D8B4819281868194FB
:1061220000F0818800F083CF01F0819801BEF9D799
:10613200818081821200000E836E000E816E000E3D
:10614200956E000E936E000E0F013B6F9284928843
:106152009280050E0F01386F890EC06E000EC16E5F
:106162000B0EC26E1200046E035084EC30F0000E6F
:10617200936E0304D8B48190020E0318D8B48192AE
:106182008196819400F0818800F004C083FF000EA4
:10619200956E00F08198818081821200056E400E1A
:1061A20005600CD0010E036E05504009B4EC30F0CE
:1061B200020E036E400EB4EC30F01200010E036EBC
:1061C2007F0EB4EC30F0020E036E0550C00F400992
:1061D200B4EC30F012000A500B10D8B418D0010EF3
:1061E2000C6E04D0D8900A360B360C2A0BAEFAD7B6
:1061F2000A50085C0B500958D8A004D00A50085E17
:106202000B50095AD8900B320A320C2EF1D708C023
:1062120008F009C009F01200000E066E000E056EAD
:1062220003500410D8B41CD0010E076E04D0D890CD
:1062320003360436072A04AEFAD7D8900536063656
:106242000350015C04500258D8A005D00350015EEF
:106252000450025A0580D89004320332072EEDD73B
:1062620005C001F006C002F01200420EF66E600E8A
:10627200F76E000EF86E00EE45F010EE08F0090021
:10628200F5CFEEFFE550E150FAE101EE00F011EE3C
:1062920000F0EE6AE550E150FCE1E250FAE100EE76
:1062A20060F0800EEE6AE806FDE100EE37F00E0EB9
:1062B200EE6AE806FDE1000EF86E000144EF39F0E7
:1062C200086E400E066004D0000E0A6E010E03D066
:1062D200000E0A6E020E096E09C00BF0085033EC74
:1062E20030F00650CFEC30F00B5084EC30F0000E62
:1062F200936E0B04D8B48190020E0B18D8B481921D
:106302008196818400F0818800F007C083FF000E2F
:10631200956E00F08198818081821200126E12C007
:1063220013F0146A1CD00DC015F0166A09D015C0FE
:1063320006F0000E076E135061EC31F0154A162A72
:106342000E500F6E106A15500F5C1050800A116EBD
:106352001650800A1158D8B0EAD7134A142A0C50A2
:106362000F6E106A13500F5C1050800A116E145099
:10637200800A1158D8A01200D6D7086E400E0660C7
:1063820004D0000E0A6E010E03D0000E0A6E020E39
:10639200096E09C00CF00750D8B406D0085033EC8F
:1063A20030F00650CFEC30F00C5084EC30F09568B1
:1063B200000E936E0C04D8B48190020E0C18D8B45F
:1063C20081928186818400F0818800F083CF0BF076
:1063D2008198818081820B50120027C01BF028C057
:1063E2001CF029C01DF02AC01EF076EC33F027C045
:1063F2001BF028C01CF0455029241D6E46502A204F
:106402001E6E76EC33F0455027241B6E4650282032
:106412001C6E29C01DF02AC01EF076EC33F04550E8
:1064220027241B6E465028201C6E455029241D6EC1
:1064320046502A201E6E76EC33F0120039C001F06D
:106442003AC002F0000E046E800E036EEFEC32F0E2
:1064520001C01BF002C01CF037C001F038C002F0CE
:10646200000E046E400E036EEFEC32F001C01DF020
:1064720002C01EF03B503C10D8B406D01DC010F034
:106482001B5050EC32F0120047C010F0495083EC20
:1064920032F01DC010F01B5050EC32F012001A6E98
:1064A2001AC001F0026A000E046E080E036EEFECD1
:1064B20032F001C018F002C019F01AC011F0070E34
:1064C2001116010E126E000E136E112A03D0D8900F
:1064D20012361336112EFBD712C014F013C015F06A
:1064E20010C00DF018505FEC30F0116E1150166EA6
:1064F200176A10C006F014501610076E185061EC9F
:1065020031F012001A6E1AC001F0026A000E046E17
:10651200080E036EEFEC32F001C018F002C019F061
:106522001AC011F0070E1116010E126E000E136E34
:10653200112A03D0D89012361336112EFBD7121C13
:10654200146E131C156E10C00DF018505FEC30F075
:10655200116E1150166E176A10C006F01450161400
:10656200076E185061EC31F01200106EE00E0D242F
:10657200016E026AFF0E0222000E046E050E036E09
:1065820071EC30F001C011F002C012F00C50050D98
:10659200F3CF0CF0000E146E000E136E14BE06D074
:1065A20014501BE1050E135CD8B01200990E112491
:1065B200F66E7D0E1220F76E0800F5500E6E0F6A11
:1065C2000CC006F00EC007F0105061EC31F00C2A3E
:1065D200114A122A134A142AE1D71200000E066E3B
:1065E20004AE06D0036C041ED8B0042A010E066E57
:1065F20002AE06D0016C021ED8B0022A010E061AA3
:10660200000E086E000E076E03500410D8B41CD0A2
:10661200010E056E04D0D89003360436052A04AE66
:10662200FAD7D890073608360350015C0450025856
:10663200D8A005D00350015E0450025A0780D890BA
:1066420004320332052EEDD70650D8B404D0076CBD
:10665200081ED8B0082A07C001F008C002F01200D4
:10666200000E046E000E036E04BE06D0045020E13C
:10667200400E035CD8B01CD003C001F004C002F08D
:10668200011E021E014A022A3F0E0126000E0222AC
:10669200D8900334D96E0434DA6E600ED926000E17
:1066A200DA2201C0DEFF02C0DDFF034A042ADCD782
:1066B200000E066E000E056E06BE06D0065014E1F0
:1066C200800E055CD8B01200D8900534D96E06341D
:1066D200DA6E000ED926010EDA2205C0DEFF06C0F0
:1066E200DDFF054A062AE8D71200000E246E000ECE
:1066F200236E36D0000E266E000E256E25D0255054
:106702001D241F6E26501E20206ED8901F36203664
:10671200000E1F24D96E010E2020DA6EDF50106E9B
:1067220023501B24216E24501C20226ED890213627
:106732002236600E2124D96E000E2220DA6EDF503E
:1067420050EC32F0254A262A4550255C2650800A14
:106752001F6E4650800A1F58D8A0D1D7234A242A38
:106762004550235C2450800A1F6E4650800A1F58F1
:10677200D8B01200BFD7186E000E1A6E000E196E36
:106782001BD0155019240C6E16C0F6FF17C0F7FF68
:10679200F86A050EF76403D00800F55005D0F6CF6D
:1067A200E9FFF7CFEAFFEF500D6E1850B6EC32F06A
:1067B200164A172A194A1A2A16C0F6FF17C0F7FFF7
:1067C200F86A050EF76403D00800F55005D0F6CF3D
:1067D200E9FFF7CFEAFFEF500A0AD8B4120016C059
:1067E200F6FF17C0F7FFF86A050EF76403D008003A
:1067F200F55005D0F6CFE9FFF7CFEAFFEF500009D9
:10680200D8B41200BED7030EC218D8A40ED0010EFF
:106812000C6E040E0D6E0A0E0E6E000E8FEC31F031
:10682200C3CF39F0C4CF3AF00DD0010E0C6E0D0E6D
:106832000D6E130E0E6E000E8FEC31F0C3CF37F0DB
:10684200C4CF38F02C0E0D6E000E0E6EF60E0F6ECB
:106852007F0E106E39C011F03AC012F0C4EC3AF05B
:10686200000E156E2C0E166E000E176E000EBCEC8E
:1068720033F02C0E0D6E000E0E6ECD0E0F6E7F0ECF
:10688200106E37C011F038C012F0C4EC3AF0090EA5
:10689200156E2C0E166E000E176E000EBCEC33F049
:1068A2002C0E0D6E000E0E6ED70E0F6E7F0E106E3A
:1068B2003BC011F03CC012F0C4EC3AF0120E156E5F
:1068C2002C0E166E000E176E000EBCEC33F012008A
:1068D2002B042C10D8A440D027C01BF028C01CF0D9
:1068E20029C01DF02AC01EF076EC33F04550272453
:1068F2001B6E465028201C6E29C01DF02AC01EF0B7
:1069020076EC33F045C02DF046C02EF0D8902D36EF
:106912002E3627502D241B6E28502E201C6E29C087
:106922001DF02AC01EF076EC33F045C001F046C0DF
:1069320002F0000E046E030E036E71EC30F027506D
:1069420001241B6E285002201C6E29C01DF02AC093
:106952001EF076EC33F0120027C01BF028C01CF0AA
:1069620029C01DF02AC01EF076EC33F027C01BF0C0
:1069720028C01CF0455029241D6E46502A201E6E48
:1069820076EC33F027C01BF028C01CF045C02DF078
:1069920046C02EF0D8902D362E3629502D241D6E4D
:1069A2002A502E201E6E76EC33F027C01BF028C032
:1069B2001CF045C001F046C002F0000E046E030E4A
:1069C200036E71EC30F0295001241D6E2A50022012
:1069D2001E6E76EC33F0120084D027C01BF028C064
:1069E2001CF029C01DF02AC01EF076EC33F0455091
:1069F20027241B6E465028201C6E29C01DF02AC079
:106A02001EF076EC33F0455027241B6E46502820AA
:106A12001C6E455029241D6E46502A201E6E76ECAF
:106A220033F045C02DF046C02EF0D8902D362E36CC
:106A320027502D241B6E28502E201C6E45502924D1
:106A42001D6E46502A201E6E76EC33F0120027C0CF
:106A52001BF028C01CF029C01DF02AC01EF076ECE5
:106A620033F027C01BF028C01CF0455029241D6EAE
:106A720046502A201E6E76EC33F045C02DF046C0FB
:106A82002EF02D1E2E1E2D4A2E2A27502D241B6E2F
:106A920028502E201C6E455029241D6E46502A2057
:106AA2001E6E76EC33F045C02DF046C02EF02D1E42
:106AB2002E1E2D4A2E2A27502D241B6E28502E20A2
:106AC2001C6E45C02FF046C030F0D8902F363036BD
:106AD20029502F241D6E2A5030201E6E76EC33F082
:106AE20012002BC02DF02CC02EF02E50000AD8A47C
:106AF20012002D50000AD8B4AAD7010AD8A4120055
:106B02006CD788D027C01BF028C01CF029C01DF00C
:106B12002AC01EF076EC33F045C02DF046C02EF0B0
:106B22002D1E2E1E2D4A2E2A27502D241B6E285034
:106B32002E201C6E29C01DF02AC01EF076EC33F008
:106B420045C02DF046C02EF02D1E2E1E2D4A2E2A97
:106B520027502D241B6E28502E201C6E45502924B0
:106B62001D6E46502A201E6E76EC33F045C02DF085
:106B720046C02EF0D8902D362E362D1E2E1E2D4AB2
:106B82002E2A27502D241B6E28502E201C6E455075
:106B920029241D6E46502A201E6E76EC33F0120018
:106BA20027C01BF028C01CF029C01DF02AC01EF00F
:106BB20076EC33F027C01BF028C01CF04550292486
:106BC2001D6E46502A201E6E76EC33F04550272467
:106BD2001B6E465028201C6E455029241D6E4650BF
:106BE2002A201E6E76EC33F0455027241B6E465049
:106BF20028201C6E45C02DF046C02EF0D8902D36B0
:106C02002E3629502D241D6E2A502E201E6E76EC13
:106C120033F012002BC02DF02CC02EF02E50000AA3
:106C2200D8A412002D50000AD8B4BAD7010AD8A4A9
:106C3200120068D7F0D027C01BF028C01CF029C072
:106C42001DF02AC01EF076EC33F0455027241B6E4F
:106C5200465028201C6E29C01DF02AC01EF076EC7A
:106C620033F045C02DF046C02EF0D8902D362E368A
:106C720027502D241B6E28502E201C6E29C01DF07B
:106C82002AC01EF076EC33F0455027241B6E465086
:106C920028201C6E45C02DF046C02EF02D1E2E1E43
:106CA2002D4A2E2A29502D241D6E2A502E201E6E6A
:106CB20076EC33F0120027C01BF028C01CF029C06C
:106CC2001DF02AC01EF076EC33F0455027241B6ECF
:106CD200465028201C6E29C01DF02AC01EF076ECFA
:106CE20033F045C02DF046C02EF0D8902D362E360A
:106CF20027502D241B6E28502E201C6E29C01DF0FB
:106D02002AC01EF076EC33F0455027241B6E465005
:106D120028201C6E455029241D6E46502A201E6EC6
:106D220076EC33F0120027C01BF028C01CF029C0FB
:106D32001DF02AC01EF076EC33F027C01BF028C0ED
:106D42001CF0455029241D6E46502A201E6E76ECFA
:106D520033F027C01BF028C01CF045C02DF046C000
:106D62002EF0D8902D362E3629502D241D6E2A5005
:106D72002E201E6E76EC33F045C02DF046C02EF06C
:106D82002D1E2E1E2D4A2E2A27502D241B6E2850D2
:106D92002E201C6E455029241D6E46502A201E6E40
:106DA20076EC33F0120027C01BF028C01CF029C07B
:106DB2001DF02AC01EF076EC33F027C01BF028C06D
:106DC2001CF0455029241D6E46502A201E6E76EC7A
:106DD20033F027C01BF028C01CF045C02DF046C080
:106DE2002EF0D8902D362E3629502D241D6E2A5085
:106DF2002E201E6E76EC33F0455027241B6E465033
:106E020028201C6E455029241D6E46502A201E6ED5
:106E120076EC33F012002BC02DF02CC02EF02E5049
:106E2200000AD8A412002D50000AD8B444D7010A8F
:106E3200D8B401D7030AD8B476D7010AD8A412006D
:106E4200B2D7FAD027C01BF028C01CF029C01DF011
:106E52002AC01EF076EC33F027C01BF028C01CF0CD
:106E6200455029241D6E46502A201E6E76EC33F0C2
:106E720027C01BF028C01CF045C02DF046C02EF0E4
:106E8200D8902D362E3629502D241D6E2A502E20B4
:106E92001E6E76EC33F0455027241B6E4650282098
:106EA2001C6E45C02DF046C02EF0D8902D362E36E1
:106EB20029502D241D6E2A502E201E6E76EC33F0A2
:106EC200120027C01BF028C01CF029C01DF02AC0E8
:106ED2001EF076EC33F027C01BF028C01CF04550A2
:106EE20029241D6E46502A201E6E76EC33F027C0F0
:106EF2001BF028C01CF045C02DF046C02EF0D890E3
:106F02002D362E3629502D241D6E2A502E201E6E0F
:106F120076EC33F045C02DF046C02EF02D1E2E1E0D
:106F22002D4A2E2A27502D241B6E28502E201C6EEF
:106F320029C01DF02AC01EF076EC33F0120027C0E3
:106F42001BF028C01CF029C01DF02AC01EF076ECF0
:106F520033F0455027241B6E465028201C6E29C052
:106F62001DF02AC01EF076EC33F045C02DF046C06D
:106F72002EF0D8902D362E3627502D241B6E2850F9
:106F82002E201C6E29C01DF02AC01EF076EC33F0B4
:106F920027C01BF028C01CF0455029241D6E465006
:106FA2002A201E6E76EC33F0120027C01BF028C098
:106FB2001CF029C01DF02AC01EF076EC33F04550BB
:106FC20027241B6E465028201C6E29C01DF02AC0A3
:106FD2001EF076EC33F045C02DF046C02EF0D8906E
:106FE2002D362E3627502D241B6E28502E201C6E37
:106FF20029C01DF02AC01EF076EC33F045C02DF0FA
:1070020046C02EF0D8902D362E3627502D241B6EDA
:1070120028502E201C6E45C02FF046C030F02F1E87
:10702200301E2F4A302A29502F241D6E2A5030201C
:107032001E6E76EC33F012002BC02DF02CC02EF019
:107042002E50000AD8A412002D50000AD8B439D705
:10705200010AD8B4F7D6030AD8B471D7010AD8A462
:107062001200A3D7FAD027C01BF028C01CF029C0F9
:107072001DF02AC01EF076EC33F027C01BF028C0AA
:107082001CF0455029241D6E46502A201E6E76ECB7
:1070920033F027C01BF028C01CF045C02DF046C0BD
:1070A2002EF0D8902D362E3629502D241D6E2A50C2
:1070B2002E201E6E76EC33F045C02DF046C02EF029
:1070C2002D1E2E1E2D4A2E2A27502D241B6E28508F
:1070D2002E201C6E45C02FF046C030F0D8902F36BF
:1070E200303629502F241D6E2A5030201E6E76EC29
:1070F20033F0120027C01BF028C01CF029C01DF07D
:107102002AC01EF076EC33F027C01BF028C01CF01A
:10711200455029241D6E46502A201E6E76EC33F00F
:1071220027C01BF028C01CF045C02DF046C02EF031
:10713200D8902D362E3629502D241D6E2A502E2001
:107142001E6E76EC33F0455027241B6E46502820E5
:107152001C6E29C01DF02AC01EF076EC33F012001E
:1071620027C01BF028C01CF029C01DF02AC01EF049
:1071720076EC33F0455027241B6E465028201C6EB7
:1071820029C01DF02AC01EF076EC33F045C02DF068
:1071920046C02EF0D8902D362E3627502D241B6E49
:1071A20028502E201C6E29C01DF02AC01EF076EC3D
:1071B20033F027C01BF028C01CF045C02DF046C09C
:1071C2002EF02D1E2E1E2D4A2E2A29502D241D6EE4
:1071D2002A502E201E6E76EC33F0120027C01BF0D0
:1071E20028C01CF029C01DF02AC01EF076EC33F036
:1071F200455027241B6E465028201C6E29C01DF0C6
:107202002AC01EF076EC33F045C02DF046C02EF0B9
:10721200D8902D362E3627502D241B6E28502E2026
:107222001C6E29C01DF02AC01EF076EC33F045C05A
:107232002DF046C02EF0D8902D362E3627502D2414
:107242001B6E28502E201C6E455029241D6E465060
:107252002A201E6E76EC33F012002BC02DF02CC0CB
:107262002EF02E50000AD8A412002D50000AD8B4D5
:1072720041D7010AD8B4F7D6030AD8B471D7010AA4
:10728200D8A41200ABD79CEC30F041EC30F0070EE2
:107292000C6E000E0D6E7F0E0E6E000E8FEC31F036
:1072A200000E25EC30F031EC33F0000E366E000E9D
:1072B200356E000E346E000E336E000E286E000E18
:1072C200276E000E2A6E000E296E000E2C6E000E26
:1072D2002B6E69EC34F0000E286E060E276E000E3F
:1072E2002A6E000E296E000E2C6E010E2B6E69ECBA
:1072F20034F0000E286E1B0E276E000E2A6E070E4B
:10730200296E000E2C6E010E2B6E1BEC36F0000E59
:10731200286E060E276E000E2A6E150E296E000EBE
:107322002C6E020E2B6E1BEC36F0000E286E060E33
:10733200276E000E2A6E060E296E000E2C6E000EAF
:107342002B6E1BEC36F0000E286E0C0E276E000E14
:107352002A6E150E296E000E2C6E030E2B6E1BEC80
:1073620036F0000E286E1E0E276E000E2A6E130EC9
:10737200296EEEEC31F0000E286E000E276E000E24
:107382002A6E200E296E000E2C6E010E2B6E22EC40
:1073920037F0000E286E320E276E000E2A6E140E83
:1073A200296E000E2C6E000E2B6E22EC37F0000EB2
:1073B200286E0C0E276E000E2A6E280E296E000E05
:1073C2002C6E020E2B6E22EC37F0000E286E1E0E73
:1073D200276E000E2A6E280E296E000E2C6E030EEA
:1073E2002B6E22EC37F0000E286E0B0E276E000E6D
:1073F2002A6E360E296E000E2C6E010E2B6E33ECA9
:1074020038F0000E286E000E276E000E2A6E320E25
:10741200296E000E2C6E000E2B6E33EC38F0000E2F
:10742200286E140E276E000E2A6E330E296E000E81
:107432002C6E020E2B6E33EC38F0000E286E180EF6
:10744200276E000E2A6E3C0E296E000E2C6E030E65
:107452002B6E33EC38F0000E286E000E276E000EF5
:107462002A6E460E296E000E2C6E010E2B6EEDEC6E
:1074720034F0000E286E180E276E000E2A6E440E8F
:10748200296E000E2C6E000E2B6EEDEC34F0000E09
:10749200286E140E276E000E2A6E640E296E000EE0
:1074A2002C6E010E2B6E82EC35F0000E286E280E2B
:1074B200276E000E2A6E640E296E000E2C6E000ED0
:1074C2002B6E82EC35F0000E156EE80E166E7F0EF6
:1074D200176E000EBCEC33F0090E156EEF0E166E31
:1074E2007F0E176E000EBCEC33F0120E156EE00E1E
:1074F200166E7F0E176E000EBCEC33F080A803D020
:10750200316A312A01D0316A3150356E366AC2B2DF
:10751200FED7C2823550331804E136503418D8B43D
:1075220015D035503610D8B409D03B503C10D8A4F1
:1075320002D0010E01D0000E3B6E3C6A1A0E316E73
:10754200F80EE82EFED7312EFCD700D0020E326E96
:10755200040E316EBA0EE82EFED7312EFCD7322E33
:10756200FAD700D004EC34F01FEC32F00B0EC21844
:10757200D8A402D0030E01D00B0EC26E35C033F078
:1075820036C034F0BBD7110E226E000E236EF0D33C
:10759200250E2918D8B409D00DC0D9FF0EC0DAFFC4
:1075A20029C0DFFF0D4A0E2AE3D3000E286E000E1B
:1075B200276E000E2B6E000E2A6E09D02A8605D089
:1075C2002A8003D02B8601D02A840F4A102A0FC0AA
:1075D200F6FF10C0F7FF0800F550200AD8B4F0D724
:1075E200030AD8B4EFD70E0AD8B4E8D71D0AD8B424
:1075F200EBD72AB62A940FC0F6FF10C0F7FF080097
:10760200F55050EC30F0D8A033D0000E286E000EAA
:10761200276E27C001F028C002F0000E046E0A0E89
:10762200036E71EC30F001C027F002C028F0D00EDA
:10763200136EFF0E146E0FC0F6FF10C0F7FF0800A6
:10764200F550156E166A1350152614501622155051
:107652002726165028220F4A102A0FC0F6FF10C004
:10766200F7FF0800F55050EC30F0D8A018D0D1D771
:107672000FC0F6FF10C0F7FF0800F5502A0AD8A481
:107682000ED022C0D9FF23C0DAFFDECF27F0DDCF34
:1076920028F0020E2226000E23220F4A102A0FC0C3
:1076A200F6FF10C0F7FF0800F5502E0AD8A436D016
:1076B2002B8C0F4A102A0FC0F6FF10C0F7FF0800EC
:1076C200F5502A0AD8A40DD022C0D9FF23C0DAFF70
:1076D200DF50266E020E2226000E23220F4A102AA7
:1076E2009BD0000E266E0FD00FC0F6FF10C0F7FF22
:1076F2000800F5CF13F026500A0DF3501324D00FD3
:10770200266E0F4A102A0FC0F6FF10C0F7FF0800BE
:10771200F55050EC30F0D8A07FD0E6D7000E266EA0
:107722007BD02A8C9CD02A8A2A8E99D02650D8B413
:1077320010D026C013F0146A13BE14062050135C36
:1077420021501458D8B005D02650206E216A20BE90
:1077520021062750205C28502158D8B005D020504F
:10776200275E2150285A04D0000E286E000E276E84
:107772002AA609D01FD00DC0D9FF0EC0DAFF200EF5
:10778200DF6E0D4A0E2A2706D8A028062728F3E125
:107792002828D8B40FD0EFD717C0D9FF18C0DAFF06
:1077A2000DC0E1FF0EC0E2FFDFCFE7FF174A182A44
:1077B2000D4A0E2A2006D8A021062028EDE1212814
:1077C200D8A4EAD72AB609D0D3D20DC0D9FF0EC0A9
:1077D200DAFF200EDF6E0D4A0E2A2706D8A02806F1
:1077E2002728F3E12828D8B4C3D2EFD722C0D9FF83
:1077F20023C0DAFFDF50296E020E2226000E23225A
:10780200290E176E000E186E000E216E010E206EEC
:107812008DD7C00E2A1223D00FC0F6FF10C0F7FF7B
:107822000F4A102A0800F5CF29F02950000AD8B4CF
:10783200ABD2580AD8B477D73B0AD8B4D7D7070AFD
:10784200D8B40DD00D0AD8B40AD0060AD8B469D774
:107852001A0AD8B4DED70D0AD8B466D7D1D7C00E6B
:107862002A14136E000E2B14146E13501410D8A485
:1078720015D022C0D9FF23C0DAFFDECF24F0DDCF3E
:1078820025F0020E2226000E232225AE13D0030E6F
:107892002A12246C251ED8B0252A0CD022C0D9FF6A
:1078A20023C0DAFFDECF24F0DDCF25F0020E222640
:1078B200000E23222650D8A44ED024502510D8A43E
:1078C2004AD0262A48D0010E296E050E2918D8B4AE
:1078D20050D02950020D990EF324F66E7F0EF4203B
:1078E200F76E0900F550245C0900F5502558D8A020
:1078F20040D0292AEAD7010E296E040E2918D8B4DD
:1079020038D02950020DA30EF324F66E7F0EF42018
:10791200F76E0900F550245C0900F5502558D8A0EF
:1079220028D0292AEAD7010E296E060E2918D8B4C2
:1079320020D02950020D8D0EF324F66E7F0EF42016
:10794200F76E0900F550245C0900F5502558D8A0BF
:1079520010D0292AEAD72A50C00B000AD8B4B3D7CC
:10796200400AD8B4E0D7C00AD8B4C5D7400AD8B4C0
:10797200AAD72950800A136E2650800A135CD8B009
:1079820003D026C029F009D02650800A136E295050
:10799200800A135CD8A029C026F027502810D8B43A
:1079A2000DD0030E2A14136E000E2B14146E1350F6
:1079B2001410D8B403D02706D8A028062BAC16D0B2
:1079C200800E26BE7F0E136E2750265C2850800A3A
:1079D2001358D8B007D02650275E000E26BEFF0EE1
:1079E200285A04D0000E286E000E276EC40E136EA5
:1079F200080E146E2AC015F02BC016F0135015167F
:107A020014501616400E15180CE1080E1618D8A4BC
:107A120008D027502810D8B428D02706D8A0280686
:107A220024D0C00E136E080E146E2AC015F02BC09F
:107A320016F01350151614501616800E151815E16F
:107A4200080E1618D8A411D028BE0BD0285004E175
:107A5200030E275CD8A005D0FE0E2726FF0E282293
:107A620004D0000E286E000E276E800E29BE7F0EF7
:107A7200136E2750295C2850800A1358D8B007D0BB
:107A82002950275E000E29BEFF0E285A04D0000E90
:107A9200286E000E276E2AA458D0030E2A14136EE5
:107AA200000E2B14146E13501410D8B409D00DC04C
:107AB200D9FF0EC0DAFF2D0E0AD00D4A0E2A35D09C
:107AC2002AA007D00DC0D9FF0EC0DAFF200EDF6E4C
:107AD200F4D7C00E136E080E146E2AC015F02BC018
:107AE20016F01350151614501616800E15181DE1B7
:107AF200080E1618D8A419D00DC0D9FF0EC0DAFF8F
:107B0200300EDF6E0D4A0E2A2ABA04D0000E1A6E0B
:107B1200780E03D0000E1A6E580E196E0DC0D9FFE2
:107B22000EC0DAFF19C0DFFFC8D727502810D8B41B
:107B320004D10DC0D9FF0EC0DAFF300EDF6E0D4A40
:107B42000E2A2706D8A02806F0D727502810D8A436
:107B52002AB60FD00DC0D9FF0EC0DAFF200EDF6E9D
:107B62000D4A0E2A2706D8A0280627502810D8A486
:107B7200F1D7030E2A14136E000E2B14146E135039
:107B82001410D8B409D00DC0D9FF0EC0DAFF2D0EE3
:107B92000AD00D4A0E2A09D02AA007D00DC0D9FF5B
:107BA2000EC0DAFF200EDF6EF4D7C00E136E080E81
:107BB200146E2AC015F02BC016F01350151614506F
:107BC2001616400E15180BE1080E1618D8A407D089
:107BD2000DC0D9FF0EC0DAFF300EDF6EACD0C00E82
:107BE200136E080E146E2AC015F02BC016F0135037
:107BF200151614501616800E151803E1080E1618E5
:107C0200D8A49BD00DC0D9FF0EC0DAFF300EDF6EB4
:107C12000D4A0E2A2ABA04D0000E1C6E780E03D02A
:107C2200000E1C6E580E1B6E0DC0D9FF0EC0DAFF7F
:107C32001BC0DFFF80D02650020D990EF324F66E92
:107C42007F0EF420F76E0900F5CF03F00A00F5CF9E
:107C520004F024C001F025C002F00DEC31F001C0A7
:107C620008F002C009F0000E0B6E0A0E0A6EECEC70
:107C720030F0085049D024C001F025C002F026504F
:107C8200020DA30EF324F66E7F0EF420F76E0900A8
:107C9200F5CF03F00A00F5CF04F00DEC31F00150FE
:107CA2000F0B1F6E2ABA04D0BC0E1D6E7F0E03D0BE
:107CB200AB0E1D6E7F0E1E6E1F50010D1DC013F008
:107CC2001EC014F0F3501326F450142213C0F6FF12
:107CD20014C0F7FF0800F5CF29F027D024C001F027
:107CE20025C002F02650020D8D0EF324F66E7F0E93
:107CF200F420F76E0900F5CF03F00A00F5CF04F087
:107D02000DEC31F00150070B300F296E0ED02A50C6
:107D1200C00B000AD8B48FD7400AD8B4DFD7C00A44
:107D2200D8B4A9D7400AD8B486D70DC0D9FF0EC09F
:107D3200DAFF29C0DFFF0D4A0E2A26062628D8A41C
:107D4200E6D72AB628BE14D0285003E12704D8A0CB
:107D52000FD00DC0D9FF0EC0DAFF200EDF6E0D4A24
:107D62000E2A2706D8A0280627502810D8A4F1D713
:107D72000FC0F6FF10C0F7FF0F4A102A0800F5CF18
:107D820029F02950D8A404D40DC0D9FF0EC0DAFFBF
:107D9200000EDF6E120000000000000000005F0015
:107DA200000007000700147F147F14242A7F2A1280
:107DB200231308646236495522500005030000006F
:107DC2001C2241000041221C00082A1C2A08080823
:107DD2003E0808005030000008080808080030304B
:107DE200000020100804023E5149453E00427F40F7
:107DF2000042615149462141454B311814127F100E
:107E020027454545393C4A49493001710905033640
:107E120049494936064949291E00363600000056AE
:107E220036000000081422411414141414412214C0
:107E320008000201510906324979413E7E111111B1
:107E42007E7F494949363E414141227F4141221CC0
:107E52007F494949417F090901013E414151327F30
:107E62000808087F00417F41002040413F017F0810
:107E72001422417F404040407F0204027F7F040879
:107E8200107F3E4141413E7F090909063E41512191
:107E92005E7F09192946464949493101017F01019D
:107EA2003F4040403F1F2040201F7F2018207F631B
:107EB2001408146303047804036151494543000024
:107EC2007F4141020408102041417F000004020169
:107ED2000204404040404000010204002054545437
:107EE200787F484444383844444420384444487FE6
:107EF2003854545418087E090102081454543C7F23
:107F02000804047800447D40002040443D00007F86
:107F120010284400417F40007C041804787C080447
:107F2200047838444444387C14141408081414188F
:107F32007C7C080404084854545420043F444020E4
:107F42003C4040207C1C2040201C3C4030403C44B3
:107F5200281028440C5050503C4464544C440008AF
:107F620036410000007F0000004136080008082A60
:107F72001C08081C2A08080800AA0008003838381B
:107F820000000000000000000000000100080040A6
:107F92000000020010008001000A006400E80310E3
:107FA2002701001000000100103031323334353621
:107FB2003738394142434445460030313233343553
:107FC20036373839616263646566004C696E657381
:107FD2003D25640A004D4F44453D25640A004D4F3E
:107FE20044453D300A00414E303D300A00414E3298
:0D7FF2003D300A0050756E74007C0A0000DE
:020000040030CA
:0E000000FF021900FFA580FF0FC00FE00F40A8
:00000001FF
