:0400000029EF3DF0B7
:1079B8000100DF7FD47FEA7FF57F010E156EC10ECF
:1079C800166E7F0E176E060E8EEC3DF01200056ED9
:1079D800010E036E0550C00956EC3DF0020E036E11
:1079E8000550C00956EC3DF01200056E010E036EFD
:1079F8000550B80956EC3DF0020E036E0550B80963
:107A080056EC3DF01200818A010E036E3F0E56ECD3
:107A18003DF0020E036E3F0E56EC3DF0000EEBEC0F
:107A28003CF0120001500302F3CF05F0F4CF06F04A
:107A380001500402F350062602500302F3500626B2
:107A480005C001F006C002F01200B80EF66E790EFD
:107A5800F76E000EF86E00EE24F010EE0AF0090042
:107A6800F5CFEEFFE550E150FAE1000EF86E0001A7
:107A780086EF3EF0026E9568000E936E0204D8B44D
:107A88008190020E0218D8B481928186819400F008
:107A9800818800F083CF01F0819801BEF9D78180F9
:107AA80081821200046E03503EEC3DF0000E936E8E
:107AB8000304D8B48190020E0318D8B48192819639
:107AC800819400F0818800F004C083FF000E956E59
:107AD80000F08198818081821200056E400E056059
:107AE8000CD0010E036E0550400956EC3DF0020E15
:107AF800036E400E56EC3DF01200010E036E7F0E31
:107B080056EC3DF0020E036E0550C00F400956ECCE
:107B18003DF01200186E000E1A6E000E196E11D08C
:107B2800155019240C6E16C0F6FF17C0F7FF080091
:107B3800F5CF0DF018504DEC3EF0164A172A194AA9
:107B48001A2A16C0F6FF17C0F7FF0800F5500A0AF0
:107B5800D8B4120016C0F6FF17C0F7FF0800F5509A
:107B68000009D8B41200DCD7086E400E066004D0B5
:107B7800000E0A6E010E03D0000E0A6E020E096E88
:107B880009C00BF00850F9EC3CF0065071EC3DF0E0
:107B98000B503EEC3DF0000E936E0B04D8B4819070
:107BA800020E0B18D8B481928196818400F08188E6
:107BB80000F007C083FF000E956E00F08198818069
:107BC80081821200126E12C013F0146A1CD00DC00C
:107BD80015F0166A09D015C006F0000E076E13508E
:107BE800B8EC3DF0154A162A0E500F6E106A155063
:107BF8000F5C1050800A116E1650800A1158D8B0C8
:107C0800EAD7134A142A0C500F6E106A13500F5CEF
:107C18001050800A116E1450800A1158D8A0120012
:107C2800D6D724042510D8A40ED0010E156E2AC06C
:107C380016F02BC017F0060E8EEC3DF0000E256EE8
:107C4800020E246E1200020E24182510D8A40ED09D
:107C5800010E156E28C016F029C017F0060E8EEC1E
:107C68003DF0000E256E030E246E1200030E24183C
:107C78002510D8A41200010E156E26C016F027C0D4
:107C880017F0060E8EEC3DF0000E256E010E246EE8
:107C98001200106EE00E0D24016E026AFF0E022221
:107CA800000E046E050E036E16EC3DF001C011F0D7
:107CB80002C012F00C50050DF3CF0CF0000E146E3C
:107CC800000E136E14BE06D014501BE1050E135C93
:107CD800D8B01200CD0E1124F66E7D0E1220F76E6C
:107CE8000800F5500E6E0F6A0CC006F00EC007F0C3
:107CF8001050B8EC3DF00C2A114A122A134A142AE3
:107D0800E1D71200000E836E000E816E000E0F0187
:107D1800386F000E956E000E936E030E926E000E75
:107D2800806E07EC3DF0070E0C6E000E0D6E7F0E98
:107D38000E6E000EE6EC3DF0000EEBEC3CF0000E93
:107D4800236E000E226E000E1F6E000E1E6E000EB9
:107D5800216E000E206E000E1D6E000E1C6E80A09F
:107D680003D01B6A1B2A01D01B6A1B50226E236A90
:107D780080A203D01B6A1B2A01D01B6A1B50206EED
:107D8800216A22501E1804E123501F18D8B405D0C8
:107D980022502310D8A415EC3EF01A0E1B6EF80ED4
:107DA800E82EFED71B2EFCD700D022C01EF023C021
:107DB8001FF020C01CF021C01DF080A2D0D7E1EC3C
:107DC8003CF0CDD700000000000000005F0000007C
:107DD80007000700147F147F14304A4D49312313DC
:107DE80008646236495522500005030000001C2231
:107DF80041000041221C00082A1C2A0808083E08E5
:107E0800080050300000080808080800303000005A
:107E180020100804023E5149453E00427F4000427E
:107E2800615149462141454B311814127F102745AD
:107E38004545393C4A4949300171090503364949E4
:107E48004936064949291E003636000000563600D4
:107E580000000814224114141414144122140800B8
:107E68000201510906324979413E7E1111117E7F86
:107E7800494949363E414141227F4141221C7F49BF
:107E88004949417F090901013E414151327F0808B2
:107E9800087F00417F41002040413F017F081422B4
:107EA800417F404040407F0204027F7F0408107FEA
:107EB8003E4141413E7F090909063E4151215E7F0D
:107EC80009192946464949493101017F01013F40C5
:107ED80040403F1F2040201F7F2018207F63140848
:107EE80014630304780403615149454300007F414A
:107EF80041020408102041417F00000402010204ED
:107F08004040404040000102040020545454787F0F
:107F1800484444383844444420384444487F38541A
:107F2800545418087E090102081454543C7F08046C
:107F3800047800447D40002040443D00007F102824
:107F48004400417F40007C041804787C08040478CD
:107F580038444444387C14141408081414187C7CDD
:107F6800080404084854545420043F4440203C402A
:107F780040207C1C2040201C3C4030403C442810C1
:107F880028440C5050503C4464544C44000836413A
:107F98000000007F0000004136080008082A1C087D
:107FA800081C2A08080800AA000800383838000009
:107FB80000000000000000000024202020202020D5
:107FC800202020202020202020200A00414C455835
:107FD80020202020200A00534F55414420202020F3
:107FE8000A004F53434152202020200A00486F6C5A
:087FF80061204349200A00004A
:020000040030CA
:0E000000FF021900FFA580FF0FC00FE00F40A8
:00000001FF
