:0400000078EF00F0A5
:100008003882FACF01F0FBCF02F0E9CF03F0EACF54
:1000180004F0E1CF05F0E2CF06F0D9CF07F0DACF50
:1000280008F0F3CF09F0F4CF0AF0F6CF0BF0F7CFD2
:100038000CF0F8CF0DF0F5CF0EF09DB29EA202D0D5
:100048002A4A2B2AF2BAF2A431D0F2943C0ED76E87
:10005800AF0ED66E2C4A2D2A0A0E2C182D10D8A4B5
:1000680025D0000E2D6E000E2C6E2E4A2F2A3C0E27
:100078002E182F10D8A41AD0000E2F6E000E2E6E38
:10008800304A312A3C0E30183110D8A40FD0000E57
:10009800316E000E306E324A332A180E3218331081
:1000A800D8A404D0000E336E000E326E0EC0F5FFD9
:1000B8000DC0F8FF0CC0F7FF0BC0F6FF0AC0F4FF35
:1000C80009C0F3FF08C0DAFF07C0D9FF06C0E2FF86
:1000D80005C0E1FF04C0EAFF03C0E9FF02C0FBFF5F
:1000E80001C0FAFF389211009EEF02F00B0E1A6E53
:1000F8002C50300F1B6E060EACEC01F00A0E1A6E77
:100108002E0E1B6E060EACEC01F0090E1A6E2EC0F8
:100118000FF02FC010F0000E126E0A0E116EE5ECF3
:1001280001F00F50300F1B6E060EACEC01F0080EFC
:100138001A6E2EC00FF02FC010F0000E126E0A0EAD
:10014800116E6AEC01F00F50300F1B6E060EACEC0E
:1001580001F0070E1A6E3A0E1B6E060EACEC01F09B
:10016800060E1A6E30C00FF031C010F0000E126E7D
:100178000A0E116EE5EC01F00F50300F1B6E060EE3
:10018800ACEC01F0050E1A6E30C00FF031C010F063
:10019800000E126E0A0E116E6AEC01F00F50300F4D
:1001A8001B6E060EACEC01F0040E1A6E3A0E1B6EB6
:1001B800060EACEC01F0030E1A6E32C00FF033C01D
:1001C80010F0000E126E0A0E116EE5EC01F00F50E1
:1001D800300F1B6E060EACEC01F0020E1A6E32C028
:1001E8000FF033C010F0000E126E0A0E116E6AEC9A
:1001F80001F00F50300F1B6E060EACEC01F0120030
:100208007AEC02F01EEC03F0070E1A6E000E1B6E5D
:100218007F0E1C6E000E1DEC02F0000E3BEC03F08E
:10022800000E296E000E286E000E276E000E266E38
:1002380082A003D0256A252A01D0256A2550286E78
:10024800296A2850261804E129502718D8B437D02D
:100258000D0E256EFC0EE82EFED7252EFCD7285055
:100268002910D8B42CD0D59E34503510D8A415D028
:10027800000E356E010E346E000E2D6E000E2C6EC3
:100288002CC02EF02DC02FF02EC030F02FC031F032
:1002980030C032F031C033F012D034043510D8A455
:1002A80005D0D58E000E356E020E08D0020E341819
:1002B8003510D8A404D0000E356E000E346E7AECDA
:1002C80000F028C026F029C027F0B2D7000E146E1F
:1002D80012AE06D0116C121ED8B0122A010E146E7E
:1002E80010AE06D00F6C101ED8B0102A010E141ACA
:1002F800000E166E000E156E11501210D8B41CD0D8
:10030800010E136E04D0D89011361236132A12AE8D
:10031800FAD7D8901536163611500F5C125010586F
:10032800D8A005D011500F5E1250105A1580D890E1
:1003380012321132132EEDD71450D8B404D0156CE4
:10034800161ED8B0162A15C00FF016C010F01200ED
:100358001E6EE00E1B240F6E106AFF0E1022000E98
:10036800126E050E116E0BEC03F00FC01FF010C0DB
:1003780020F01A50060DF3CF1AF0000E226E000E70
:10038800216E22BE06D022501BE1050E215CD8B09A
:100398001200010E1F24F66E7E0E2020F76E080054
:1003A800F5501C6E1D6A1AC014F01CC015F01E50C2
:1003B8004CEC02F01A2A1F4A202A214A222AE1D7A5
:1003C8001200000E146E10AE06D00F6C101ED8B0BE
:1003D800102A010E146E12AE04D0116C121ED8B081
:1003E800122A11501210D8B418D0010E136E04D06E
:1003F800D89011361236132A12AEFAD711500F5C64
:1004080012501058D8A004D011500F5E1250105A34
:10041800D89012321132132EF1D71450D8B404D018
:100428000F6C101ED8B0102A0FC00FF010C010F0BB
:100438001200206E20C021F0226A1CD01BC023F0BD
:10044800246A09D023C014F0000E156E21504CEC1C
:1004580002F0234A242A1C501D6E1E6A23501D5C7C
:100468001E50800A1F6E2450800A1F58D8B0EAD741
:10047800214A222A1A501D6E1E6A21501D5C1E50E8
:10048800800A1F6E2250800A1F58D8A01200D6D7A3
:10049800166E400E146004D0000E186E010E03D0C4
:1004A800000E186E020E176E17C019F016502DECBC
:1004B80003F01450BBEC02F01950F3EC02F0000EFC
:1004C800936E1904D8B48190020E1918D8B4819289
:1004D8008196818400F0818800F015C083FF000EAA
:1004E800956E00F08198818081821200000E0F01C4
:1004F8003A6F000E836E000E816E000E826E000E43
:10050800956E000E936E010E946EF28ED08EBA84A4
:10051800000EBC6E310EBB6E9D829E924A0EBA6E64
:10052800F294F28AF184010ED56E3C0ED76EAF0EAE
:10053800D66E1200920EF66E060EF76E000EF86E6C
:1005480000EE34F010EE04F00900F5CFEEFFE550B0
:10055800E150FAE100EE2AF00A0EEE6AE806FDE143
:1005680038903892000EF86E000104EF01F0136E17
:10057800400E13600CD0010E116E13504009D8ECD8
:1005880002F0020E116E400ED8EC02F01200010EBD
:10059800116E7F0ED8EC02F0020E116E1350C00FD0
:1005A8004009D8EC02F01200126E1150F3EC02F080
:1005B800000E936E1104D8B48190020E1118D8B4AD
:1005C80081928196819400F0818800F012C083FFA7
:1005D800000E956E00F08198818081821200106E65
:1005E8009568000E936E1004D8B48190020E10180E
:1005F800D8B481928186819400F0818800F083CFFD
:100608000FF081980FBEF9D78180818212000F50B8
:100618001102F3CF13F0F4CF14F00F501202F3507D
:10062800142610501102F350142613C00FF014C0F2
:1006380010F01200818A010E116E3F0ED8EC02F004
:10064800020E116E3F0ED8EC02F0000E3BEC03F0E8
:100658001200136E010E116E1350B809D8EC02F097
:10066800020E116E1350B809D8EC02F01200136E86
:10067800010E116E1350C009D8EC02F0020E116E73
:0E0688001350C009D8EC02F012000100F57FFB
:107E000000000000000000005F0000000700070005
:107E1000147F147F14304A4D49313E4488443E3C1F
:107E200042895522225589423C7C2211227C004104
:107E3000221C00082A1C2A0808083E0808005030A6
:107E4000000008080808080030300000201008046E
:107E5000023E5149453E00427F4000426151494641
:107E60002141454B311814127F1027454545393CB7
:107E70004A494930017109050336494949360649DD
:107E800049291E003636000000563600000008144E
:107E9000224114141414144122140800020151093F
:107EA00006324979413E7E1111117E7F494949369A
:107EB0003E414141227F4141221C7F494949417F46
:107EC000090901013E414151327F0808087F004104
:107ED0007F41002040413F017F081422417F404004
:107EE00040407F0204027F7F0408107F3E414141F1
:107EF0003E7F090909063E4151215E7F0919294645
:107F0000464949493101017F01013F4040403F1F3F
:107F10002040201F7F2018207F631408146303046F
:107F2000780403615149454300007F414102040840
:107F3000102041417F000004020102044040404003
:107F400040000102040020545454787F48444438CF
:107F50003844444420384444487F38545454180822
:107F60007E090102081454543C7F0804047800443C
:107F70007D40002040443D00007F10284400417FA8
:107F800040007C041804787C080404783844444495
:107F9000387C14141408081414187C7C0804040891
:107FA0004854545420043F4440203C4040207C1C12
:107FB0002040201C3C4030403C44281028440C50B9
:107FC00050503C4464544C44000836410000007F4B
:107FD0000000004136080008082A1C08081C2A086E
:107FE000080800AA00080038383800000000000027
:107FF0000000000000486F6C61204349200A000027
:020000040030CA
:0E000000FF021900FFA580FF0FC00FE00F40A8
:00000001FF
