:0400000041EF00F0DC
:100008001382FACF01F0FBCF02F0E9CF03F0EACF79
:1000180004F0E1CF05F0E2CF06F0D9CF07F0DACF50
:1000280008F0F3CF09F0F4CF0AF0F6CF0BF0F7CFD2
:100038000CF0F8CF0DF0F5CF0EF09EA200D00EC058
:10004800F5FF0DC0F8FF0CC0F7FF0BC0F6FF0AC0A4
:10005800F4FF09C0F3FF08C0DAFF07C0D9FF06C0E4
:10006800E2FF05C0E1FF04C0EAFF03C0E9FF02C0E8
:10007800FBFF01C0FAFF139211005DEF00F0000EC4
:100088000F013A6F9494000E0F01396F7F0E936E33
:10009800D08EF28E9D829F829E920C0EBD6E000EB7
:1000A8000F01496F000EBE6E7C0EBB6E060EBA6E57
:1000B8001200126A116A106A0F6A139013920001F3
:0A00C80066EF00F043EC00F0FFD7F4
:020000040030CA
:0E000000FF021900FFA580FF0FC00FE00F40A8
:00000001FF
